{
  "contractName": "MyMileage",
  "abi": [
    {
      "anonymous": false,
      "inputs": [
        {
          "indexed": false,
          "internalType": "string",
          "name": "comment",
          "type": "string"
        },
        {
          "indexed": false,
          "internalType": "address",
          "name": "owner",
          "type": "address"
        }
      ],
      "name": "NewComment",
      "type": "event"
    },
    {
      "anonymous": false,
      "inputs": [],
      "name": "UpdatedComment",
      "type": "event"
    },
    {
      "constant": false,
      "inputs": [
        {
          "internalType": "string",
          "name": "comment",
          "type": "string"
        }
      ],
      "name": "addComment",
      "outputs": [],
      "payable": true,
      "stateMutability": "payable",
      "type": "function"
    },
    {
      "constant": false,
      "inputs": [
        {
          "internalType": "uint256",
          "name": "_id",
          "type": "uint256"
        }
      ],
      "name": "loveComment",
      "outputs": [],
      "payable": true,
      "stateMutability": "payable",
      "type": "function"
    },
    {
      "constant": true,
      "inputs": [],
      "name": "getComments",
      "outputs": [
        {
          "components": [
            {
              "internalType": "string",
              "name": "comment",
              "type": "string"
            },
            {
              "internalType": "address",
              "name": "owner",
              "type": "address"
            },
            {
              "internalType": "address[]",
              "name": "lovedUsers",
              "type": "address[]"
            }
          ],
          "internalType": "struct MyMileage.Comment[]",
          "name": "_comments",
          "type": "tuple[]"
        }
      ],
      "payable": false,
      "stateMutability": "view",
      "type": "function"
    }
  ],
  "bytecode": "0x608060405234801561001057600080fd5b50610bd8806100206000396000f3fe6080604052600436106100345760003560e01c80632ab9261514610039578063843b43861461005557806391f3410c14610071575b600080fd5b610053600480360361004e91908101906107c3565b61009c565b005b61006f600480360361006a919081019061077e565b610260565b005b34801561007d57600080fd5b506100866103c8565b60405161009391906109c6565b60405180910390f35b806060600082815481106100ac57fe5b906000526020600020906003020160020180548060200260200160405190810160405280929190818152602001828054801561013d57602002820191906000526020600020905b8160009054906101000a900473ffffffffffffffffffffffffffffffffffffffff1673ffffffffffffffffffffffffffffffffffffffff16815260200190600101908083116100f3575b5050505050905060008090505b81518110156101ac573373ffffffffffffffffffffffffffffffffffffffff1682828151811061017657fe5b602002602001015173ffffffffffffffffffffffffffffffffffffffff16141561019f57600080fd5b808060010191505061014a565b50600083815481106101ba57fe5b90600052602060002090600302016002013390806001815401808255809150509060018203906000526020600020016000909192909190916101000a81548173ffffffffffffffffffffffffffffffffffffffff021916908373ffffffffffffffffffffffffffffffffffffffff160217905550507f20e20dd09af066d60e0e1f82485689404f3f09b356e72ef7a542b77b23319b8560405160405180910390a1505050565b60606000604051806060016040528085858080601f016020809104026020016040519081016040528093929190818152602001838380828437600081840152601f19601f8201169050808301925050505050505081526020013373ffffffffffffffffffffffffffffffffffffffff168152602001838152509080600181540180825580915050906001820390600052602060002090600302016000909192909190915060008201518160000190805190602001906103209291906105ad565b5060208201518160010160006101000a81548173ffffffffffffffffffffffffffffffffffffffff021916908373ffffffffffffffffffffffffffffffffffffffff160217905550604082015181600201908051906020019061038492919061062d565b505050507fffc3efe481030d0ee1c621ab2f16df6092ad77a928f3be687d5fd12ff31c512d8383336040516103bb939291906109e8565b60405180910390a1505050565b60606000805480602002602001604051908101604052809291908181526020016000905b828210156105a45783829060005260206000209060030201604051806060016040529081600082018054600181600116156101000203166002900480601f0160208091040260200160405190810160405280929190818152602001828054600181600116156101000203166002900480156104a85780601f1061047d576101008083540402835291602001916104a8565b820191906000526020600020905b81548152906001019060200180831161048b57829003601f168201915b505050505081526020016001820160009054906101000a900473ffffffffffffffffffffffffffffffffffffffff1673ffffffffffffffffffffffffffffffffffffffff1673ffffffffffffffffffffffffffffffffffffffff1681526020016002820180548060200260200160405190810160405280929190818152602001828054801561058c57602002820191906000526020600020905b8160009054906101000a900473ffffffffffffffffffffffffffffffffffffffff1673ffffffffffffffffffffffffffffffffffffffff1681526020019060010190808311610542575b505050505081525050815260200190600101906103ec565b50505050905090565b828054600181600116156101000203166002900490600052602060002090601f016020900481019282601f106105ee57805160ff191683800117855561061c565b8280016001018555821561061c579182015b8281111561061b578251825591602001919060010190610600565b5b50905061062991906106b7565b5090565b8280548282559060005260206000209081019282156106a6579160200282015b828111156106a55782518260006101000a81548173ffffffffffffffffffffffffffffffffffffffff021916908373ffffffffffffffffffffffffffffffffffffffff1602179055509160200191906001019061064d565b5b5090506106b391906106dc565b5090565b6106d991905b808211156106d55760008160009055506001016106bd565b5090565b90565b61071c91905b8082111561071857600081816101000a81549073ffffffffffffffffffffffffffffffffffffffff0219169055506001016106e2565b5090565b90565b60008083601f84011261073157600080fd5b8235905067ffffffffffffffff81111561074a57600080fd5b60208301915083600182028301111561076257600080fd5b9250929050565b60008135905061077881610b7e565b92915050565b6000806020838503121561079157600080fd5b600083013567ffffffffffffffff8111156107ab57600080fd5b6107b78582860161071f565b92509250509250929050565b6000602082840312156107d557600080fd5b60006107e384828501610769565b91505092915050565b60006107f88383610827565b60208301905092915050565b6000610810838361096f565b905092915050565b61082181610af5565b82525050565b61083081610ab9565b82525050565b600061084182610a3a565b61084b8185610a75565b935061085683610a1a565b8060005b8381101561088757815161086e88826107ec565b975061087983610a5b565b92505060018101905061085a565b5085935050505092915050565b600061089f82610a45565b6108a98185610a86565b9350836020820285016108bb85610a2a565b8060005b858110156108f757848403895281516108d88582610804565b94506108e383610a68565b925060208a019950506001810190506108bf565b50829750879550505050505092915050565b60006109158385610aa8565b9350610922838584610b2b565b61092b83610b6d565b840190509392505050565b600061094182610a50565b61094b8185610a97565b935061095b818560208601610b3a565b61096481610b6d565b840191505092915050565b6000606083016000830151848203600086015261098c8282610936565b91505060208301516109a16020860182610827565b50604083015184820360408601526109b98282610836565b9150508091505092915050565b600060208201905081810360008301526109e08184610894565b905092915050565b60006040820190508181036000830152610a03818587610909565b9050610a126020830184610818565b949350505050565b6000819050602082019050919050565b6000819050602082019050919050565b600081519050919050565b600081519050919050565b600081519050919050565b6000602082019050919050565b6000602082019050919050565b600082825260208201905092915050565b600082825260208201905092915050565b600082825260208201905092915050565b600082825260208201905092915050565b6000610ac482610acb565b9050919050565b600073ffffffffffffffffffffffffffffffffffffffff82169050919050565b6000819050919050565b6000610b0082610b07565b9050919050565b6000610b1282610b19565b9050919050565b6000610b2482610acb565b9050919050565b82818337600083830152505050565b60005b83811015610b58578082015181840152602081019050610b3d565b83811115610b67576000848401525b50505050565b6000601f19601f8301169050919050565b610b8781610aeb565b8114610b9257600080fd5b5056fea365627a7a7231582014bde664bba9487b7e0d6e9a9aa76e1badbace95b25a8c4f4b2cc5c8f77f76346c6578706572696d656e74616cf564736f6c63430005100040",
  "source": "// SPDX-License-Identifier: MIT\npragma experimental ABIEncoderV2;\npragma solidity >=0.4.22 <0.9.0;\n\ncontract MyMileage {\n    struct Comment {\n        string comment;\n        address owner;\n        address[] lovedUsers;\n    }\n\n    Comment[] comments;\n\n    event NewComment(string comment, address owner);\n    event UpdatedComment();\n\n    function addComment(string calldata comment) external payable {\n        address[] memory lovedUsers;\n        comments.push(Comment(comment, msg.sender, lovedUsers));\n\n        emit NewComment(comment, msg.sender);\n    }\n\n    modifier newLovedUser(uint256 _id) {\n        address[] memory lovedUsers = comments[_id].lovedUsers;\n        for (uint256 i = 0; i < lovedUsers.length; i++) {\n            require(lovedUsers[i] != msg.sender);\n        }\n        _;\n    }\n\n    function loveComment(uint256 _id) external payable newLovedUser(_id) {\n        comments[_id].lovedUsers.push(msg.sender);\n        emit UpdatedComment();\n    }\n\n    function getComments() external view returns (Comment[] memory _comments) {\n        return comments;\n    }\n}\n",
  "sourcePath": "/home/work/my-mileage-sol/contracts/my-mileage.sol",
  "compiler": {
    "name": "solc",
    "version": "0.5.16+commit.9c3226ce.Emscripten.clang"
  },
  "schemaVersion": "3.4.2",
  "updatedAt": "2021-08-24T15:42:30.963Z",
  "networkType": "ethereum",
  "devdoc": {
    "methods": {}
  },
  "userdoc": {
    "methods": {}
  }
}